{
 "_format": "hh-sol-artifact-1",
 "contractName": "GalvaRegistry",
 "sourceName": "contracts/GalvaRegistry.sol",
 "abi": [
  {
   "anonymous": false,
   "inputs": [
    {
     "indexed": true,
     "internalType": "bytes32",
     "name": "node",
     "type": "bytes32"
    }
   ],
   "name": "Attest",
   "type": "event"
  },
  {
   "inputs": [
    {
     "internalType": "address",
     "name": "who",
     "type": "address"
    }
   ],
   "name": "addressRights",
   "outputs": [
    {
     "internalType": "uint256",
     "name": "",
     "type": "uint256"
    }
   ],
   "stateMutability": "view",
   "type": "function"
  },
  {
   "inputs": [
    {
     "internalType": "string",
     "name": "title",
     "type": "string"
    },
    {
     "internalType": "uint256",
     "name": "area",
     "type": "uint256"
    },
    {
     "internalType": "bytes",
     "name": "node",
     "type": "bytes"
    },
    {
     "internalType": "address",
     "name": "sender",
     "type": "address"
    }
   ],
   "name": "attestProperty",
   "outputs": [],
   "stateMutability": "nonpayable",
   "type": "function"
  },
  {
   "inputs": [],
   "name": "blockchainConsumedRights",
   "outputs": [
    {
     "internalType": "uint256",
     "name": "",
     "type": "uint256"
    }
   ],
   "stateMutability": "view",
   "type": "function"
  },
  {
   "inputs": [
    {
     "internalType": "string",
     "name": "title_number",
     "type": "string"
    },
    {
     "internalType": "uint8",
     "name": "v",
     "type": "uint8"
    },
    {
     "internalType": "bytes32",
     "name": "r",
     "type": "bytes32"
    },
    {
     "internalType": "bytes32",
     "name": "s",
     "type": "bytes32"
    }
   ],
   "name": "claimOwnership",
   "outputs": [
    {
     "internalType": "address",
     "name": "",
     "type": "address"
    }
   ],
   "stateMutability": "pure",
   "type": "function"
  },
  {
   "inputs": [
    {
     "internalType": "bytes",
     "name": "node",
     "type": "bytes"
    }
   ],
   "name": "recordExists",
   "outputs": [
    {
     "internalType": "bool",
     "name": "",
     "type": "bool"
    }
   ],
   "stateMutability": "view",
   "type": "function"
  }
 ],
 "bytecode": "0x608060405234801561001057600080fd5b5061082f806100206000396000f3fe608060405234801561001057600080fd5b50600436106100575760003560e01c8063914d11801461005c578063a153dcff14610076578063aaf3136c146101b4578063d2fb878714610282578063e092d2fe1461033a575b600080fd5b610064610360565b60408051918252519081900360200190f35b6101b26004803603608081101561008c57600080fd5b810190602081018135600160201b8111156100a657600080fd5b8201836020820111156100b857600080fd5b803590602001918460018302840111600160201b831117156100d957600080fd5b91908080601f01602080910402602001604051908101604052809392919081815260200183838082843760009201919091525092958435959094909350604081019250602001359050600160201b81111561013357600080fd5b82018360208201111561014557600080fd5b803590602001918460018302840111600160201b8311171561016657600080fd5b91908080601f016020809104026020016040519081016040528093929190818152602001838380828437600092019190915250929550505090356001600160a01b031691506103669050565b005b610266600480360360808110156101ca57600080fd5b810190602081018135600160201b8111156101e457600080fd5b8201836020820111156101f657600080fd5b803590602001918460018302840111600160201b8311171561021757600080fd5b91908080601f0160208091040260200160405190810160405280939291908181526020018383808284376000920191909152509295505060ff833516935050506020810135906040013561056c565b604080516001600160a01b039092168252519081900360200190f35b6103266004803603602081101561029857600080fd5b810190602081018135600160201b8111156102b257600080fd5b8201836020820111156102c457600080fd5b803590602001918460018302840111600160201b831117156102e557600080fd5b91908080601f0160208091040260200160405190810160405280939291908181526020018383808284376000920191909152509295506105ec945050505050565b604080519115158252519081900360200190f35b6100646004803603602081101561035057600080fd5b50356001600160a01b0316610659565b60035490565b816001816040518082805190602001908083835b602083106103995780518252601f19909201916020918201910161037a565b51815160209384036101000a600019018019909216911617905292019485525060405193849003019092205460ff161591506104169050576040805162461bcd60e51b81526020600482015260156024820152746578697374733a207265636f72642065786973747360581b604482015290519081900360640190fd5b6040518060600160405280868152602001858152602001848152506000846040518082805190602001908083835b602083106104635780518252601f199092019160209182019101610444565b51815160209384036101000a60001901801990921691161790529201948552506040519384900381019093208451805191946104a494508593500190610766565b506020828101516001830155604083015180516104c79260028501920190610766565b50905050600180846040518082805190602001908083835b602083106104fe5780518252601f1990920191602091820191016104df565b51815160209384036101000a600019018019909216911617905292019485525060408051948590038201909420805460ff191695151595909517909455505060038054870190556001600160a01b039390931660009081526002909152919091208054909301909255505050565b60008061057886610674565b9050600060018287878760405160008152602001604052604051808581526020018460ff1681526020018381526020018281526020019450505050506020604051602081039080840390855afa1580156105d6573d6000803e3d6000fd5b5050604051601f19015198975050505050505050565b60006001826040518082805190602001908083835b602083106106205780518252601f199092019160209182019101610601565b51815160209384036101000a600019018019909216911617905292019485525060405193849003019092205460ff161515949350505050565b6001600160a01b031660009081526002602052604090205490565b600080826040516020018080602001828103825283818151815260200191508051906020019080838360005b838110156106b85781810151838201526020016106a0565b50505050905090810190601f1680156106e55780820380516001836020036101000a031916815260200191505b5092505050604051602081830303815290604052805190602001209050600061070d82610715565b949350505050565b604080517f19457468657265756d205369676e6564204d6573736167653a0a333200000000602080830191909152603c8083019490945282518083039094018452605c909101909152815191012090565b828054600181600116156101000203166002900490600052602060002090601f016020900481019282601f106107a757805160ff19168380011785556107d4565b828001600101855582156107d4579182015b828111156107d45782518255916020019190600101906107b9565b506107e09291506107e4565b5090565b5b808211156107e057600081556001016107e556fea26469706673582212203d985786034745c9399299db1f4e708189940c9494ae8ef9e4e84f9bb21794ff64736f6c63430007030033",
 "linkReferences": {},
 "deployedLinkReferences": {}
}